:100000000C942A000C9447000C9447000C94470071
:100010000C9447000C9447000C9447000C9438054E
:100020000C9447000C9447000C9447000C94470034
:100030000C9447000C9447000C9447000C94470024
:100040000C9447000C9447000C9447000C94470014
:100050000C94470011241FBECFE5D8E0DEBFCDBF12
:1000600011E0A0E6B0E0E2E4FCE002C005900D92F1
:10007000AC3DB107D9F721E0ACEDB1E001C01D9274
:10008000A03EB207E1F70E9475050C941F060C9480
:100090000000919A85E38A95F1F700009198089500
:1000A00092B3937C92BB92B3807F86958695892B81
:1000B00082BB0C944900CF93C82F909A0E945000A5
:1000C0008C2F8295807F0E9450008AE78A95F1F7F5
:1000D00000C08AE78A95F1F700C0CF910895CF93C9
:1000E000C82F90980E9450008C2F8295807F0E948C
:1000F000500080E78A95F1F780E78A95F1F7CF9174
:10010000089581E00E946F008FE99FE00197F1F769
:1001100000C000008FE99FE00197F1F700C00000E8
:10012000089582E00E946F008FE99FE00197F1F748
:1001300000C000008FE99FE00197F1F700C00000C8
:100140000895823059F018F4813031F008958330E9
:1001500039F0843039F0089580E805C080EC03C0A0
:1001600080E901C080ED860F0C946F00CF93DF9380
:10017000EC018991882319F00E945B00FACFDF918E
:10018000CF910895EF92FF921F93CF93DF9300D00A
:10019000CDB7DEB728E0829FC00111248064698357
:1001A0007A830E946F006981E62E7A81F72E18E02B
:1001B000F70181917F010E945B001150C9F780E82F
:1001C0000F900F90DF91CF911F91FF90EF900C94C3
:1001D0006F00CF93DF93CDB7DEB7C054D1090FB610
:1001E000F894DEBF0FBECDBF81B38F6381BB82B3F6
:1001F000807C82BB8FE295E70197F1F700C0000099
:1002000080E30E9450008FE097E20197F1F700C071
:1002100000000E9449008FEC97E00197F1F700C0C1
:1002200000000E9449008FEC97E00197F1F700C0B1
:10023000000080E20E9450008FE097E20197F1F702
:1002400000C0000088E20E946F008CE00E946F00F6
:1002500086E00E946F000E94810088E0E0E6F0E006
:10026000DE01D99601900D928A95E1F788E0E8E6E3
:10027000F0E0DE01D19601900D928A95E1F788E0D9
:10028000E0E7F0E0DE01999601900D928A95E1F7A2
:1002900088E0E8E7F0E0DE01919601900D928A9502
:1002A000E1F788E0E0E8F0E0DE01599601900D9278
:1002B0008A95E1F788E0E8E8F0E0DE0151960190E8
:1002C0000D928A95E1F788E0E0E9F0E0DE01199609
:1002D00001900D928A95E1F788E0E8E9F0E0DE010F
:1002E000119601900D928A95E1F7BE01675C7F4FF0
:1002F00080E00E94C200BE016F5C7F4F81E00E94DF
:10030000C200BE01675D7F4F82E00E94C200BE0155
:100310006F5D7F4F83E00E94C200BE01675E7F4F2A
:1003200084E00E94C200BE016F5E7F4F85E00E94A4
:10033000C200BE01675F7F4F86E00E94C200BE011F
:100340006F5F7F4F87E00E94C200C05CDF4F0FB637
:10035000F894DEBF0FBECDBFDF91CF9108951F93FC
:10036000CF93DF93182FC62F0E94A100DC2FD0312E
:1003700050F481ED91E00E94B60082E08A95F1F799
:1003800000C0DF5FF4CF6C2F812FDF91CF911F91E1
:100390000C94A100CF93DF93CDB7DEB72A970FB6A9
:1003A000F894DEBF0FBECDBF2AE0AE014F5F5F4FB6
:1003B0000E94DE05CE0101960E94B6002A960FB675
:1003C000F894DEBF0FBECDBFDF91CF9108950E949C
:1003D000A10081ED91E00C94B60017BAB89A87B3EA
:1003E000817E87BB88B38E6188BBC0980895B19B1E
:1003F00009C0B29B0AC0B39B0BC0B49B0CC080E089
:1004000090E00BC081E090E008C082E090E005C081
:1004100083E090E002C084E090E02FE73AE146E01C
:10042000215030404040E1F700C000000895C09ADC
:100430000895C09808950E940B050E94E9000C944D
:10044000ED010E94810065E081E00E94A10080EA48
:1004500090E00E94B60061E082E00E94A10088EA7C
:1004600090E00E94B60081EE0E945B008AEA90E074
:100470000E94B60061E083E00E94A10087EB90E05B
:100480000E94B60061E084E00E94A10082EC90E04E
:100490000C94B600CF93C82F60E082E00E94E70181
:1004A00060E083E00E94E70160E084E00E94E701F1
:1004B000C33008F0C0E060E082E08C0F0E94A10031
:1004C0008EE7CF910C945B000E94810060E081E098
:1004D0000E94A10088EC90E00E94B60085E00E9496
:1004E0005B008BEC90E00E94B60060E082E00E942E
:1004F000A10088ED90E00E94B60060E083E00E94D9
:10050000A10087EE90E00E94B60060E084E00E94C7
:10051000A10088EF90E00E94B60081EE0E945B008F
:100520008FEF90E00E94B6002FEF87EA91E621500E
:1005300080409040E1F700C000000E94810060E030
:1005400081E00E94A10088EC90E00E94B60085E066
:100550000E945B0086E091E00E94B60060E082E0CD
:100560000E94A10082E191E00E94B60060E083E079
:100570000E94A10081E291E00E94B60081EE0E94FB
:100580005B0086E291E00E94B60060E084E00E9499
:10059000A10082E391E00E94B6002FEF87EA91E686
:1005A000215080409040E1F700C000000E9481008F
:1005B00060E081E00E94A10082E491E00E94B60028
:1005C00060E082E00E94A10081E591E00E94B60017
:1005D00060E083E00E94A1008FE591E00E94B600F8
:1005E00060E084E00E94A1008FE691E00E94B600E6
:1005F0002FEF83ED90E3215080409040E1F700C061
:10060000000008954F925F926F927F928F929F9217
:10061000AF92BF92CF92DF92EF92FF92CF93DF9390
:1006200000D000D0CDB7DEB72B013C0120E13EE089
:1006300040E050E00E948E0549015A01A0E1BEE071
:100640000E94B005461A570A680A790AC301B20126
:100650002CE330E040E050E00E948E0569017A0111
:10066000ACE3B0E00E94B005461A570A680A790A5E
:1006700064E082E00E94A100B501A401552766272D
:10068000772789E0881558F080E349835A836B8384
:100690007C830E945B0049815A816B817C81CB0104
:1006A000BA010E94CA018AE30E945B0067E082E00F
:1006B0000E94A100460157019924AA24BB24E9E025
:1006C000EC1518F080E30E945B00C501B4010E94A4
:1006D000CA018AE30E945B006AE082E00E94A100F6
:1006E00073016201DD24EE24FF24F9E0F41518F013
:1006F00080E30E945B00C701B6010F900F900F903E
:100700000F90DF91CF91FF90EF90DF90CF90BF904F
:10071000AF909F908F907F906F905F904F900C94D0
:10072000CA014F925F926F927F929F92AF92BF9257
:10073000CF92DF92EF92FF920F931F93CF93DF93AD
:1007400003E010E0C0E1DEE0912CC12CD12C760159
:100750003CE3A32EB12CCC33D10569F0C0318EE03F
:10076000D80731F0C130D10541F48BE0982E05C097
:1007700025E0922E02C098E0992E8FE00E946F0033
:100780002E01662457FC6094762CC701B6010E94A6
:100790000203692D82E00E94A1000E94F7018230CD
:1007A000910589F050F4019781F78CE00E946F0069
:1007B00060E070E080E090E025C08330910569F052
:1007C000049781F0E2CFC114D104E104F104E9F20D
:1007D000C418D508E608F708D8CFC40CD51CE61C09
:1007E000F71CD3CF8CE00E946F00CE01B5010E94B0
:1007F0007A05EB01015011090115110509F0ABCF84
:10080000B601C701DF91CF911F910F91FF90EF903B
:10081000DF90CF90BF90AF909F907F906F905F9050
:100820004F900895CF92DF92EF92FF920E94810045
:1008300063E081E00E94A1008EE791E00E94B60093
:1008400061E084E00E94A10089E891E00E94B60086
:100850000E949103611571058105910581F00E9447
:100860002A050E9421056B017C010E940203CD280C
:10087000CE28CF2851F00E94F701019791F7FF9001
:10088000EF90DF90CF900C94350563E083E00E94F9
:10089000A10088E991E00E94B60060E084E00E9437
:1008A000A10084EA91E00E94B60085E00E945B000E
:1008B0008FEA91E00E94B6000E9435050E9417025F
:1008C00060E081E00E94A10084EB91E00E94B6000C
:1008D0002FEF84E39CE0215080409040E1F700C07E
:1008E000000060E081E00E94AF012FEF83EC99E00F
:1008F000215080409040E1F700C000000E94F701C5
:100900000497F1F60E9435050E9419020E94F70132
:100910000497E1F3FF90EF90DF90CF900895CF928E
:10092000DF92EF92FF920E94810063E081E00E94DB
:10093000A10087EB90E00E94B60043E0C42ED12CCA
:10094000E12CF12C60E083E00E94A10085EC91E0B5
:100950000E94B600C701B6010E94CA0183ED91E072
:100960000E94B6000E9417022FEF84E39CE0215002
:1009700080409040E1F700C000000E9419022FEF74
:1009800084E39CE0215080409040E1F700C00000EB
:1009900021E0C21AD108E108F1088FEFC816D80685
:1009A000E806F80679F6FF90EF90DF90CF90089573
:1009B000CF93C82F813049F028F0823041F40E9453
:1009C000640205C00E94120402C00E948F040E94AB
:1009D00021028C2FCF910C944A020E94210280E0C8
:1009E0000E944A02C0E00E94F7018330910549F05D
:1009F0008430910561F00297B1F7C23020F4CF5FE7
:100A000002C0C111C1508C2F0E944A02ECCF8C2F22
:100A10000E94D804E8CF8EB588608EBD89B780610A
:100A200089BF81E19AE79BBD8ABD8EB584608EBD8A
:100A30001092DC011092DD011092DE011092DF01B4
:100A400008956091DC017091DD018091DE0190914B
:100A5000DF010895F8946093DC017093DD018093C9
:100A6000DE019093DF0178940895F8940C941902B4
:100A70001F920F920FB60F9211242F933F934F9313
:100A80005F936F937F938F939F93AF93BF93EF93F6
:100A9000FF938091DC019091DD01A091DE01B09186
:100AA000DF010097A105B10521F4F8940E94170217
:100AB0000BC00197A109B1098093DC019093DD017E
:100AC000A093DE01B093DF01FF91EF91BF91AF9151
:100AD0009F918F917F916F915F914F913F912F9156
:100AE0000F900FBE0F901F9018950E941B020E943E
:100AF000ED04FDCF97FB072E16F4009407D077FD89
:100B000009D00E94BB0507FC05D03EF49095819565
:100B10009F4F0895709561957F4F0895A1E21A2E19
:100B2000AA1BBB1BFD010DC0AA1FBB1FEE1FFF1F91
:100B3000A217B307E407F50720F0A21BB30BE40BE1
:100B4000F50B661F771F881F991F1A9469F7609528
:100B50007095809590959B01AC01BD01CF010895E2
:100B60000E94CF05A59F900DB49F900DA49F800D6E
:100B7000911D11240895AA1BBB1B51E107C0AA1F98
:100B8000BB1FA617B70710F0A61BB70B881F991F2E
:100B90005A95A9F780959095BC01CD010895A29F23
:100BA000B001B39FC001A39F700D811D1124911D41
:100BB000B29F700D811D1124911D0895BB272A300D
:100BC00051F4992342F4BDE290958095709561951A
:100BD0007F4F8F4F9F4F0C94EE05BB27FA01A62F36
:100BE0006217710581059105330B30FB66F0AA276A
:100BF000660F771F881F991FAA1FA21710F0A21B4C
:100C000063953850A9F7A05DAA3308F0A95DA193B8
:100C100036F7B111B1931082CA010C940F06DC01B2
:100C2000FC01672F71917723E1F7329704C07C9123
:100C30006D9370836291AE17BF07C8F30895F8945F
:020C4000FFCFE4
:100C420002040E010F110F0002040E111F100E00FC
:100C520002040C0404040E0002040E1111110E0011
:100C62000204111111130D000A00111111130D00CC
:100C7200050A111111130D00050A0E1111110E00B2
:100C82004B422033312F31005A00686C6572207359
:100C920074617274656E004C616D70656E7465731B
:100CA200740048696C666500447200636B656E206F
:100CB2007369652064696500746173746572205597
:100CC20050206F64657200444F574E20756D206549
:100CD200696E2057657274007A7520766572006EAF
:100CE2006465726E2E00636B656E20736965204FBA
:100CF2004B00756D2065696E2057657274207A7598
:100D0200006265737400746967656E2C206F646598
:100D12007200455343207A756D2041626272756399
:100D22006800534744204B697066656E626572675E
:100D32000053573A207665722E3A20312E31004206
:100D420075696C643A2032383038323031380045B7
:100D52002D5765726B7374617474203A2900436F66
:100D6200756E7420646F776E004553433A2061625A
:100D72006272656368656E005A756D204265656EC4
:100D820064656E004F4B206C616E67206472006375
:100D92006B656E005A4549542049535420415553BE
:100DA20020212121007363686C6965737374206963
:0C0DB2006E2000207365632E2E2E0000C2
:00000001FF
